:060000000A128A11F02F24
:100C280083160313911211160800831603139116E5
:100C380011160800831203138C19242E00001E2E8F
:100C48008C110800F000831203130C1A2D2E0000DB
:100C5800272E70089900080019308316031399008D
:100C6800831203139817181683160313981618156A
:100C780008008316031387150716283083120313F9
:100C88009400093083160313930050309400080031
:100C98007E088A007F0882004C260A128A1180008A
:100CA800840A04087D0603190034FF0A0319FE0AA2
:100CB800502EF300F4017108740203180800740838
:100CC8007307F20072088400831300080A128A115D
:100CD80026260A128A110130F2007208F4075F2EE4
:100CE800323434344C3443343534313432342034AF
:100CF80057342F345034493443343134363446343D
:100D08003834383437340034533449343234433483
:100D18000A340034F2008316031311140A128A11DC
:100D28001E260A128A11AE308312031393000A1288
:100D38008A1114260A128A110A128A111E260A1208
:100D48008A118312031393010A128A1114260A12B4
:100D58008A110A128A111E260A128A118312031393
:100D680093010A128A1114260A128A110A128A1188
:100D78001E260A128A11F301700873020318DD2E69
:100D880073087207F1007108840083130008831246
:100D9800031393000A128A1114260A128A110A12DE
:100DA8008A111E260A128A110130F1007108F30710
:100DB800C02E8316031311150A128A111E26080065
:100DC800F200F30172087302031808008316031374
:100DD80011140A128A111E260A128A11AE308312C1
:100DE800031393000A128A1114260A128A110A128E
:100DF8008A111E260A128A118312031393010A12FA
:100E08008A1114260A128A110A128A111E260A1237
:100E18008A1173088312031393000A128A11142685
:100E28000A128A110A128A111E260A128A118316B8
:100E3800031311140A128A111E260A128A11AF30DE
:100E48008312031393000A128A1114260A128A11B4
:100E58000A128A111E260A128A1183160313911583
:100E68000A128A111E260A128A110A128A111926D2
:100E78000A128A118316031311150A128A111E26E3
:100E88000A128A118312031313080A128A112626DA
:100E98000A128A1100000130F1007108F307E62EEA
:100EA8003A3084002030F5000408F6001430F700CA
:100EB8007508840083130008F800F50A7608840092
:100EC80078088000F60AF70B5C2F4E3084008312F6
:100ED800031334088000840A35088000840A360821
:100EE8008000840A37088000840A38088000840A51
:100EF800390880000A128A1130260A128A11053030
:100F0800F5007508F1004E300A128A115D260A12A2
:100F18008A110A128A113D260A128A110330F70033
:100F28008A30F6005630F500F50B982FF60B982FFF
:100F3800F70B982F9F2F5730F5007508831203136E
:100F4800CE000530F5007508F1004E300A128A11FE
:100F58005D260A128A111330F5007508F0003A3040
:100F68000A128A118E260A128A110330F7008A3073
:100F7800F6005630F500F50BBF2FF60BBF2FF70B19
:100F8800BF2FC62F5230F500750883120313CE0009
:100F98000530F5007508F1004E300A128A115D26F9
:100FA8000A128A1113300A128A11E4260A128A11C7
:100FB8000A300A128A1126260A128A110B30F70003
:100FC8002630F6006630F500F50BE82FF60BE82F13
:100FD800F70BE82FEF2FCC2F83133A30FD000630A4
:100FE800FE007430FF00203084000A128A11502657
:080FF80083010A128A11542F33
:02400E00F5FFBC
:00000001FF
