:100000000A128A11F02FFF1B0D2883137F18831704
:100010000008840A0319FF0A080000308A00040857
:10002000840A8207003428346E3475346C346C349E
:0A0030002934003425347334003401
:100B9C007E088A007F088200CE250A128A11800006
:100BAC00840A04087D0603190034FF0A0319FE0A9F
:100BBC00D22D20344D346934633472346F34733431
:100BCC0020342D342034563445344D344D340034D7
:100BDC0020342034493450344E3420342D342034D5
:100BEC004534533443344F344D340034831203139F
:100BFC000910F401F5018914F401F5010915F4014A
:100C0C00F50108088039F000F1017008F200710854
:100C1C00F3000911F401F50172087304031D042E8D
:100C2C0089100F30831603138800203083120313AE
:100C3C0088000915F401F5010911F401F501FF30E3
:100C4C008316031388000800F400831203130910A1
:100C5C00F501F6018914F501F6010915F501F60106
:100C6C0008088039F000F1017008F2007108F300F7
:100C7C000911F501F6010915F501F6010911F50146
:100C8C00F60172087304031D332E89100F3083167E
:100C9C000313880074088312031388000915F501E7
:100CAC00F6010911F501F6017408F0000330031088
:100CBC00F00DFF3E031D5D2E0310700D880009150D
:100CCC00F501F6010911F501F601FF308316031346
:100CDC0088000800F400831203130910F501F601D3
:100CEC008914F501F6010915F501F601080880399A
:100CFC00F000F1017008F2007108F3000911F50120
:100D0C00F6010915F501F6010911F501F601720854
:100D1C007304031D792E0914F501F60189100F30A7
:100D2C0083160313880074088312031388000915B3
:100D3C00F501F6010911F501F6017408F000033014
:100D4C000310F00DFF3E031DA62E0310700D88003E
:100D5C000915F501F6010911F501F601FF308316AD
:100D6C0003138800080083120313A3007730F800E4
:100D7C007808A100013083120313A307FF30230767
:100D8C0084000A128A110D200A128A11F8007808C0
:100D9C00A200220803190800253022060319DD2EB3
:100DAC0022080A128A1170260A128A11C02E831286
:100DBC000313A001142F210884000008A4000030A4
:100DCC00A5000130F8007808A10724082504031DAC
:100DDC00F32E0130A4008030A5002508FF00240864
:100DEC0084000A128A1103200A128A11003A03198C
:100DFC00C02E2508FF00240884000A128A11032043
:100E0C000A128A110A128A1170260A128A110130EA
:100E1C0083120313A4070318A50AF32E0130A307AA
:100E2C00FF30230784000A128A110D200A128A113E
:100E3C00A200003A0319272F733A0319E12EC02E92
:100E4C00C02E0800353084005430F9000408FA0034
:100E5C000E30FB007908840083130008FC00F90AAB
:100E6C007A0884007C088000FA0AFB0B302F2630AD
:100E7C0084004530F9000408FA000F30FB007908B3
:100E8C00840083130008FC00F90A7A0884007C08AB
:100E9C008000FA0AFB0B452FF830831603138900E8
:100EAC008316031788010A128A11FC250A128A116B
:100EBC000C300A128A112A260A128A1128300A12B8
:100ECC008A112A260A128A1101300A128A112A263C
:100EDC000A128A1180300A128A112A260A128A11E1
:100EEC003530F9007908F70008300A128A11B92652
:100EFC000A128A11C0300A128A112A260A128A1181
:100F0C002630F9007908F70008300A128A11B92640
:100F1C000A128A1183120313C301C4014408803AD4
:100F2C00FF0080307F02031D9D2F0B3043020318FE
:100F3C00C52F0630FB001330FA00B130F900F90B65
:100F4C00A52FFA0BA52FFB0BA52FAC2F18300A12CF
:100F5C008A112A260A128A11013083120313C3073D
:100F6C000318C40A0030C4074408803AFF008030DC
:100F7C007F02031DC32F0B304302031C9F2F8312D0
:100F8C000313C301C4014408803AFF0080307F0280
:100F9C00031DD22F0B3043020318902F0630FB0099
:100FAC001330FA00B130F900F90BDA2FFA0BDA2F03
:100FBC00FB0BDA2FE12F1C300A128A112A260A1297
:100FCC008A11013083120313C3070318C40A0030BB
:100FDC00C407C92F83136230FD000530FE00DF30DB
:100FEC00FF00453084000A128A11D22583010A12AF
:040FFC008A11282FFF
:02400E00E5F3D8
:00000001FF
