:100000000A128A11F02FFF1B0D2883137F18831704
:100010000008840A0319FF0A080000308A00040857
:10002000840A8207003428346E3475346C346C349E
:0A0030002934003425347334003401
:100BE8007E088A007F088200F4250A128A11800094
:100BF800840A04087D0603190034FF0A0319FE0A53
:100C0800F82D5F343A343A34383420346234693455
:100C1800743473343A343A345F345F3400344D34C6
:100C28006934633472346F34733420342D3420348F
:100C3800563445344D344D340034831203130910AF
:100C4800F401F5018914F401F5010915F401F50120
:100C580008088039F000F1017008F2007108F3000B
:100C68000911F401F50172087304031D292E891076
:100C78008316031388013030831203138800091583
:100C8800F401F5010911F401F501FF30831603138E
:100C980088000800F400831203130910F501F60117
:100CA8008914F501F6010915F501F60108088039DE
:100CB800F000F1017008F2007108F3000911F50164
:100CC800F6010915F501F6010911F501F601720899
:100CD8007304031D572E89108316031388017408A3
:100CE8008312031388000915F501F6010911F501AE
:100CF800F601FF308316031388000800F4008312FE
:100D080003130910F501F6018914F501F601091517
:100D1800F501F60108088039F000F1017008F200C9
:100D28007108F3000911F501F6010915F501F6013D
:100D38000911F501F60172087304031D8B2E0914BD
:100D4800F501F601891083160313880174088312CC
:100D5800031388000915F501F6010911F501F601DB
:100D6800FF30831603138800080083120313A300BF
:100D78007730F8007808A100013083120313A30725
:100D8800FF30230784000A128A110D200A128A11E3
:100D9800F8007808A2002208031908002530220666
:100DA8000319DD2E22080A128A1182260A128A11D4
:100DB800C02E83120313A001142F210884000008F9
:100DC800A4000030A5000130F8007808A107240825
:100DD8002504031DF32E0130A4008030A50025084A
:100DE800FF00240884000A128A1103200A128A11BB
:100DF800003A0319C02E2508FF00240884000A12AF
:100E08008A1103200A128A110A128A1182260A12EA
:100E18008A11013083120313A4070318A50AF32EBD
:100E28000130A307FF30230784000A128A110D201E
:100E38000A128A11A200003A0319272F733A0319DC
:100E4800E12EC02EC02E0800263084004430F90060
:100E58000408FA000E30FB007908840083130008A8
:100E6800FC00F90A7A0884007C088000FA0AFB0B67
:100E7800302F343084005230F9000408FA000E3064
:100E8800FB007908840083130008FC00F90A7A083B
:100E980084007C088000FA0AFB0B452FF830831683
:100EA800031389008316031788010A128A11212661
:100EB8000A128A110C300A128A114E260A128A1155
:100EC80038300A128A114E260A128A1101300A1283
:100ED8008A114E260A128A1180300A128A114E2669
:100EE8000A128A112630F9007908F70008300A1228
:100EF8008A11B9260A128A11C0300A128A114E269E
:100F08000A128A113430F9007908F70008300A12F9
:100F18008A11B9260A128A1183120313C201C30166
:100F28004308803AFF0080307F02031D9D2F0B305D
:100F380042020318C52F0630FB001330FA00B13007
:100F4800F900F90BA52FFA0BA52FFB0BA52FAC2F3A
:100F580018300A128A114E260A128A110130831299
:100F68000313C2070318C30A0030C3074308803AB3
:100F7800FF0080307F02031DC32F0B304202031C89
:100F88009F2F83120313C201C3014308803AFF0055
:100F980080307F02031DD22F0B3042020318902F9E
:100FA8000630FB001330FA00B130F900F90BDA2FE4
:100FB800FA0BDA2FFB0BDA2FE12F1C300A128A11F9
:100FC8004E260A128A11013083120313C20703182E
:100FD800C30A0030C307C92F83136030FD000630F1
:100FE800FE000530FF00443084000A128A11F825FB
:080FF80083010A128A11282F5F
:02400E00E5F3D8
:00000001FF
