:060000000A128A11F02F24
:100D3A00003400340A341F341F340E3404340034AF
:100D4A001F340D340D340D340D3405340A340F3488
:100D5A007E088A007F088200AD260A128A11800066
:100D6A00840A04087D0603190034FF0A0319FE0ADF
:100D7A00B12EF9007708F80002300310F80DFF3E93
:100D8A00031DC22E0310780D403E0A128A11122743
:100D9A000A128A11FA0108307A02031808007A083E
:100DAA007907F80078088400831300080A128A1168
:100DBA0040270A128A110130F8007808FA07D02E63
:100DCA00831203130910F401F5018914F401F501E2
:100DDA000915F401F50108088039F000F1017008DD
:100DEA00F2007108F3000911F401F50172087304A5
:100DFA00031DED2E891083160313880138308312E0
:100E0A00031388000915F401F5010911F401F5012C
:100E1A00FF308316031388000800F40083120313BB
:100E2A000910F501F6018914F501F6010915F50114
:100E3A00F60108088039F000F1017008F200710823
:100E4A00F3000911F501F60172087304031D1B2F43
:100E5A008910831603138801740883120313880008
:100E6A000915F501F6010911F501F601FF3083169E
:100E7A00031388000800F400831203130910F50114
:100E8A00F6018914F501F6010915F501F6010808BC
:100E9A008039F000F1017008F2007108F3000911BD
:100EAA00F501F60172087304031D492F091489100C
:100EBA008316031388017408831203138800091523
:100ECA00F501F6010911F501F601FF308316031346
:100EDA008800080024308400343083120313A000F1
:100EEA000408A1000830A200200884008313000827
:100EFA00A300A00A2108840023088000A10AA20BEB
:100F0A00792F2C3084003C30A0000408A10008305E
:100F1A00A2002008840083130008A300A00A210865
:100F2A00840023088000A10AA20B8E2FFE308316AC
:100F3A0003138700FF308800F830890083160317EF
:100F4A0088010A128A11E5260A128A110C300A123D
:100F5A008A1112270A128A1138300A128A111227A4
:100F6A000A128A1101300A128A1112270A128A11E8
:100F7A00F701F70A24300A128A11BE260A128A11C8
:100F8A00023083120313A0002008F7002C300A1243
:100F9A008A11BE260A128A11831203130714833098
:100FAA000A128A1112270A128A1101300A128A11A8
:100FBA0040270A128A1183120313071085300A1276
:100FCA008A1112270A128A1102300A128A1140273C
:100FDA000A128A11D12F83134430FD000630FE0015
:100FEA009D30FF00343084000A128A11B126830131
:060FFA000A128A116F2F9C
:02400E00E5F3D8
:00000001FF
