:060000000A128A11FC2F18
:100F2200F000831203130C1A982F0000922F7008FE
:100F320099000800193083160313990083120313D2
:100F42009817181683160313981618150800FF3001
:100F5200831603138500013083160317880083125A
:100F620003131F083F3940389F001F08C339043854
:100F72009F001F14831603139F179F121F1208004E
:100F82000A128A119B270A128A110A128A11A827A9
:100F92000A128A111A30F3005E30F2008630F10034
:100FA200F10BD12FF20BD12FF30BD12F00008312B3
:100FB20003139F14831203130C1BE12F0000DB2F7A
:100FC2001E080339F1007108F40074080A128A112C
:100FD20091270A128A1175080A128A1191270A1298
:100FE2008A11831603131E08F1007108F50083129B
:0E0FF20003130C13CB2F83010A128A11C12F97
:02400E00F5FFBC
:00000001FF
